{
  "_format": "hh-sol-artifact-1",
  "contractName": "MpesaEthBridgeMain",
  "sourceName": "contracts/MpesaEthBridge.sol",
  "abi": [
    {
      "anonymous": false,
      "inputs": [
        {
          "indexed": true,
          "internalType": "address",
          "name": "admin",
          "type": "address"
        },
        {
          "indexed": false,
          "internalType": "uint256",
          "name": "feeAmount",
          "type": "uint256"
        }
      ],
      "name": "AdminFeeCollected",
      "type": "event"
    },
    {
      "anonymous": false,
      "inputs": [
        {
          "indexed": true,
          "internalType": "address",
          "name": "caller",
          "type": "address"
        },
        {
          "indexed": false,
          "internalType": "uint256",
          "name": "balanceBefore",
          "type": "uint256"
        },
        {
          "indexed": false,
          "internalType": "uint256",
          "name": "balanceAfter",
          "type": "uint256"
        }
      ],
      "name": "ContractBalance",
      "type": "event"
    },
    {
      "anonymous": false,
      "inputs": [
        {
          "indexed": true,
          "internalType": "address",
          "name": "sender",
          "type": "address"
        },
        {
          "indexed": false,
          "internalType": "uint256",
          "name": "amount",
          "type": "uint256"
        }
      ],
      "name": "EthDeposited",
      "type": "event"
    },
    {
      "anonymous": false,
      "inputs": [
        {
          "indexed": true,
          "internalType": "address",
          "name": "from",
          "type": "address"
        },
        {
          "indexed": false,
          "internalType": "uint256",
          "name": "amount",
          "type": "uint256"
        }
      ],
      "name": "EthReceived",
      "type": "event"
    },
    {
      "anonymous": false,
      "inputs": [
        {
          "indexed": true,
          "internalType": "address",
          "name": "receiver",
          "type": "address"
        },
        {
          "indexed": false,
          "internalType": "uint256",
          "name": "amountAfterFee",
          "type": "uint256"
        }
      ],
      "name": "EthSent",
      "type": "event"
    },
    {
      "anonymous": false,
      "inputs": [
        {
          "indexed": true,
          "internalType": "address",
          "name": "user",
          "type": "address"
        },
        {
          "indexed": false,
          "internalType": "uint256",
          "name": "kesEquivalent",
          "type": "uint256"
        }
      ],
      "name": "MpesaTrigger",
      "type": "event"
    },
    {
      "inputs": [],
      "name": "ADMIN_FEE_PERCENT",
      "outputs": [
        {
          "internalType": "uint256",
          "name": "",
          "type": "uint256"
        }
      ],
      "stateMutability": "view",
      "type": "function"
    },
    {
      "inputs": [],
      "name": "KES_TO_ETH_RATE",
      "outputs": [
        {
          "internalType": "uint256",
          "name": "",
          "type": "uint256"
        }
      ],
      "stateMutability": "view",
      "type": "function"
    },
    {
      "inputs": [
        {
          "internalType": "uint256",
          "name": "ethAmountWei",
          "type": "uint256"
        }
      ],
      "name": "convertEthToKes",
      "outputs": [
        {
          "internalType": "uint256",
          "name": "",
          "type": "uint256"
        }
      ],
      "stateMutability": "pure",
      "type": "function"
    },
    {
      "inputs": [
        {
          "internalType": "uint256",
          "name": "kesAmount",
          "type": "uint256"
        }
      ],
      "name": "convertKesToEth",
      "outputs": [
        {
          "internalType": "uint256",
          "name": "",
          "type": "uint256"
        }
      ],
      "stateMutability": "pure",
      "type": "function"
    },
    {
      "inputs": [],
      "name": "depositEth",
      "outputs": [],
      "stateMutability": "payable",
      "type": "function"
    },
    {
      "inputs": [],
      "name": "feesEarningWallet",
      "outputs": [
        {
          "internalType": "address",
          "name": "",
          "type": "address"
        }
      ],
      "stateMutability": "view",
      "type": "function"
    },
    {
      "inputs": [],
      "name": "getContractBalance",
      "outputs": [
        {
          "internalType": "uint256",
          "name": "",
          "type": "uint256"
        }
      ],
      "stateMutability": "view",
      "type": "function"
    },
    {
      "inputs": [
        {
          "internalType": "address payable",
          "name": "receiver",
          "type": "address"
        },
        {
          "internalType": "uint256",
          "name": "amountInEth",
          "type": "uint256"
        }
      ],
      "name": "sendEthWithFee",
      "outputs": [],
      "stateMutability": "nonpayable",
      "type": "function"
    },
    {
      "inputs": [
        {
          "internalType": "address",
          "name": "newWallet",
          "type": "address"
        }
      ],
      "name": "updateFeeWallet",
      "outputs": [],
      "stateMutability": "nonpayable",
      "type": "function"
    },
    {
      "stateMutability": "payable",
      "type": "receive"
    }
  ],
  "bytecode": "0x6080604052736a6a9ce7419b97c04f2403f376c7288549fbd17a6000806101000a81548173ffffffffffffffffffffffffffffffffffffffff021916908373ffffffffffffffffffffffffffffffffffffffff160217905550348015606357600080fd5b50611022806100736000396000f3fe60806040526004361061008a5760003560e01c80634c01e9de116100595780634c01e9de1461018157806366718524146101be5780636f9fb98a146101e7578063802282de14610212578063d3d50d951461023b576100df565b806316590049146100e45780631f8bd25c1461010f5780633f94a5761461014c578063439370b114610177576100df565b366100df573373ffffffffffffffffffffffffffffffffffffffff167f85177f287940f2f05425a4029951af0e047a7f9c4eaa9a6e6917bcd869f86695346040516100d5919061090f565b60405180910390a2005b600080fd5b3480156100f057600080fd5b506100f9610266565b604051610106919061090f565b60405180910390f35b34801561011b57600080fd5b506101366004803603810190610131919061095b565b61026b565b604051610143919061090f565b60405180910390f35b34801561015857600080fd5b50610161610294565b60405161016e91906109c9565b60405180910390f35b61017f6102b8565b005b34801561018d57600080fd5b506101a860048036038101906101a3919061095b565b61034b565b6040516101b5919061090f565b60405180910390f35b3480156101ca57600080fd5b506101e560048036038101906101e09190610a10565b610361565b005b3480156101f357600080fd5b506101fc6104a1565b604051610209919061090f565b60405180910390f35b34801561021e57600080fd5b5061023960048036038101906102349190610a7b565b6104c1565b005b34801561024757600080fd5b506102506108f1565b60405161025d919061090f565b60405180910390f35b600181565b60006001670de0b6b3a7640000836102839190610b19565b61028d9190610b4a565b9050919050565b60008054906101000a900473ffffffffffffffffffffffffffffffffffffffff1681565b600034116102fb576040517f08c379a00000000000000000000000000000000000000000000000000000000081526004016102f290610c0f565b60405180910390fd5b3373ffffffffffffffffffffffffffffffffffffffff167f66ff7c8f71ccc7c36152a41920d0d3b46ef3034359f76aa1498ed4478c204b5c34604051610341919061090f565b60405180910390a2565b600060018261035a9190610b19565b9050919050565b60008054906101000a900473ffffffffffffffffffffffffffffffffffffffff1673ffffffffffffffffffffffffffffffffffffffff163373ffffffffffffffffffffffffffffffffffffffff16146103ef576040517f08c379a00000000000000000000000000000000000000000000000000000000081526004016103e690610ca1565b60405180910390fd5b600073ffffffffffffffffffffffffffffffffffffffff168173ffffffffffffffffffffffffffffffffffffffff160361045e576040517f08c379a000000000000000000000000000000000000000000000000000000000815260040161045590610d0d565b60405180910390fd5b806000806101000a81548173ffffffffffffffffffffffffffffffffffffffff021916908373ffffffffffffffffffffffffffffffffffffffff16021790555050565b600080479050670de0b6b3a7640000816104bb9190610b19565b91505090565b60008111610504576040517f08c379a00000000000000000000000000000000000000000000000000000000081526004016104fb90610d79565b60405180910390fd5b600073ffffffffffffffffffffffffffffffffffffffff168273ffffffffffffffffffffffffffffffffffffffff1603610573576040517f08c379a000000000000000000000000000000000000000000000000000000000815260040161056a90610de5565b60405180910390fd5b6000670de0b6b3a7640000826105899190610b4a565b90506000479050818110156105d3576040517f08c379a00000000000000000000000000000000000000000000000000000000081526004016105ca90610e51565b60405180910390fd5b60006064600a846105e49190610b4a565b6105ee9190610b19565b9050600081846105fe9190610e71565b905060008673ffffffffffffffffffffffffffffffffffffffff168260405161062690610ed6565b60006040518083038185875af1925050503d8060008114610663576040519150601f19603f3d011682016040523d82523d6000602084013e610668565b606091505b50509050806106ac576040517f08c379a00000000000000000000000000000000000000000000000000000000081526004016106a390610f37565b60405180910390fd5b60008060009054906101000a900473ffffffffffffffffffffffffffffffffffffffff1673ffffffffffffffffffffffffffffffffffffffff16846040516106f390610ed6565b60006040518083038185875af1925050503d8060008114610730576040519150601f19603f3d011682016040523d82523d6000602084013e610735565b606091505b5050905080610779576040517f08c379a000000000000000000000000000000000000000000000000000000000815260040161077090610fa3565b60405180910390fd5b60004790503373ffffffffffffffffffffffffffffffffffffffff167f6a549812dc2bbbc23484420a93f65076bd914ea0bab629be4998acc915ac05d987836040516107c6929190610fc3565b60405180910390a28873ffffffffffffffffffffffffffffffffffffffff167f78f5cdad99320ec2ba57132d7dffb1d125775c823239e60ff5e9300fd4ac898c85604051610814919061090f565b60405180910390a260008054906101000a900473ffffffffffffffffffffffffffffffffffffffff1673ffffffffffffffffffffffffffffffffffffffff167f3c8d2739645751d385f227bf819d6cdae3ef85a20fe7b765b834c887171914c286604051610882919061090f565b60405180910390a260006108958861026b565b90508973ffffffffffffffffffffffffffffffffffffffff167fa65607eccb437d252a71f1c967a1ef9134e4a24978142a7fff1b56acd1f5ad5c826040516108dd919061090f565b60405180910390a250505050505050505050565b600a81565b6000819050919050565b610909816108f6565b82525050565b60006020820190506109246000830184610900565b92915050565b600080fd5b610938816108f6565b811461094357600080fd5b50565b6000813590506109558161092f565b92915050565b6000602082840312156109715761097061092a565b5b600061097f84828501610946565b91505092915050565b600073ffffffffffffffffffffffffffffffffffffffff82169050919050565b60006109b382610988565b9050919050565b6109c3816109a8565b82525050565b60006020820190506109de60008301846109ba565b92915050565b6109ed816109a8565b81146109f857600080fd5b50565b600081359050610a0a816109e4565b92915050565b600060208284031215610a2657610a2561092a565b5b6000610a34848285016109fb565b91505092915050565b6000610a4882610988565b9050919050565b610a5881610a3d565b8114610a6357600080fd5b50565b600081359050610a7581610a4f565b92915050565b60008060408385031215610a9257610a9161092a565b5b6000610aa085828601610a66565b9250506020610ab185828601610946565b9150509250929050565b7f4e487b7100000000000000000000000000000000000000000000000000000000600052601260045260246000fd5b7f4e487b7100000000000000000000000000000000000000000000000000000000600052601160045260246000fd5b6000610b24826108f6565b9150610b2f836108f6565b925082610b3f57610b3e610abb565b5b828204905092915050565b6000610b55826108f6565b9150610b60836108f6565b9250828202610b6e816108f6565b91508282048414831517610b8557610b84610aea565b5b5092915050565b600082825260208201905092915050565b7f4465706f73697420616d6f756e74206d7573742062652067726561746572207460008201527f68616e207a65726f000000000000000000000000000000000000000000000000602082015250565b6000610bf9602883610b8c565b9150610c0482610b9d565b604082019050919050565b60006020820190508181036000830152610c2881610bec565b9050919050565b7f4f6e6c792063757272656e74206665652077616c6c65742063616e207570646160008201527f7465000000000000000000000000000000000000000000000000000000000000602082015250565b6000610c8b602283610b8c565b9150610c9682610c2f565b604082019050919050565b60006020820190508181036000830152610cba81610c7e565b9050919050565b7f496e76616c69642077616c6c6574000000000000000000000000000000000000600082015250565b6000610cf7600e83610b8c565b9150610d0282610cc1565b602082019050919050565b60006020820190508181036000830152610d2681610cea565b9050919050565b7f416d6f756e74206d7573742062652067726561746572207468616e207a65726f600082015250565b6000610d63602083610b8c565b9150610d6e82610d2d565b602082019050919050565b60006020820190508181036000830152610d9281610d56565b9050919050565b7f496e76616c696420726563656976657200000000000000000000000000000000600082015250565b6000610dcf601083610b8c565b9150610dda82610d99565b602082019050919050565b60006020820190508181036000830152610dfe81610dc2565b9050919050565b7f4e6f7420656e6f7567682062616c616e636520696e20636f6e74726163740000600082015250565b6000610e3b601e83610b8c565b9150610e4682610e05565b602082019050919050565b60006020820190508181036000830152610e6a81610e2e565b9050919050565b6000610e7c826108f6565b9150610e87836108f6565b9250828203905081811115610e9f57610e9e610aea565b5b92915050565b600081905092915050565b50565b6000610ec0600083610ea5565b9150610ecb82610eb0565b600082019050919050565b6000610ee182610eb3565b9150819050919050565b7f45544820746f207265636569766572206661696c656400000000000000000000600082015250565b6000610f21601683610b8c565b9150610f2c82610eeb565b602082019050919050565b60006020820190508181036000830152610f5081610f14565b9050919050565b7f466565207472616e73666572206661696c656400000000000000000000000000600082015250565b6000610f8d601383610b8c565b9150610f9882610f57565b602082019050919050565b60006020820190508181036000830152610fbc81610f80565b9050919050565b6000604082019050610fd86000830185610900565b610fe56020830184610900565b939250505056fea26469706673582212208a628b69fc1b7fcdec085db647f279a8c659faea4f8ab80b0f8781cc3268d73664736f6c634300081c0033",
  "linkReferences": {},
  "deployedLinkReferences": {}
}